:10000000D1C3000000C40000FEC30000FCC3000018
:10001000FAC30000F8C30000F6C30000F4C30000F8
:10002000F2C30000F0C30000EEC30000ECC3000008
:10003000EAC30000E8C30000E6C30000E4C3000018
:10004000E2C30000E0C30000DEC30000DCC3000028
:10005000DAC30000D8C30000D6C300000C94481CCB
:10006000D2C3000060C5000034C50000CCC300004E
:10007000CAC30000C8C30000C6C30000C4C3000058
:10008000C2C30000C0C30000BEC30000BCC3000068
:10009000BAC30000B8C30000B6C30000B4C3000078
:1000A000B2C30000B0C30000AEC30000ACC3000088
:1000B000AAC30000A8C30000A6C30000A4C3000098
:1000C000A2C30000A0C300009EC300009CC30000A8
:1000D0009AC3000098C3000096C3000094C30000B8
:1000E00092C30000B20AE40A000B1C0B440BCB0BBA
:1000F000E50B1F0C1F0C1F0C1F0C1F0C1F0C6B0A99
:100100001F0C1F0C1F0C1F0C800B1F0C1F0C1F0C37
:100110001F0CA90B52185518441848184E188C1863
:1001200059185D18631867186B18711875187918C5
:100130008C187F188318871873657446696C74650A
:100140007228293A007365744D61736B28293A004F
:10015000015261696C7374617273204C696D6974CA
:1001600065640A496F20446576656C6F7065722717
:100170007320426F6172640A312E300A312E3300CF
:1001800000002100240027002A002D003000330049
:1001900001010000040107010A01000022002500FE
:1001A00028002B002E003100340002010000050160
:1001B00008010B01000020002300260029002C006C
:1001C0002F003200000100000301060109010505AE
:1001D0000505070508080808020202020A0A0808BD
:1001E00004040404010101010101010103030303EB
:1001F00003030303040707070C0C0C0C0C0C0C0C7A
:100200000202020206060606060606060B0B0B0B8A
:100210000B0B0B0B010210202008081020401020AF
:1002200040800201020108040201010204081020BA
:1002300040808040201008040201800402018040B8
:100240002010080402010804020101020408102021
:100250004080010204081020408000000A0B0209BF
:100260000C0D0E0807030401000000000000000050
:10027000000000000000000000000000000000007E
:10028000000000000000121110000000000000003B
:10029000000000000000000000000000000000005E
:1002A00004B6E704B6D304B6C704B6C30290070386
:1002B000AC8103AC800290003C3F786D6C20766589
:1002C0007273696F6E3D27312E302720656E636F24
:1002D00064696E673D275554462D38273F3E3C3FA5
:1002E000786D6C2D7374796C6573686565742074B2
:1002F0007970653D27746578742F78736C27206852
:100300007265663D2778736C742F6364692E787309
:100310006C273F3E3C63646920786D6C6E733A785D
:1003200073693D27687474703A2F2F7777772E772B
:10033000332E6F72672F323030312F584D4C53634C
:1003400068656D612D696E7374616E6365272078D1
:1003500073693A6E6F4E616D657370616365536367
:1003600068656D614C6F636174696F6E3D27687479
:1003700074703A2F2F6F70656E6C63622E6F7267A8
:100380002F7472756E6B2F70726F746F74797065E5
:10039000732F786D6C2F736368656D612F6364696B
:1003A0002E787364273E3C6964656E746966696380
:1003B0006174696F6E3E3C6D616E756661637475E4
:1003C0007265723E5261696C7374617273204C691C
:1003D0006D697465643C2F6D616E756661637475DB
:1003E0007265723E3C6D6F64656C3E496F3C2F6D6B
:1003F0006F64656C3E3C68617264776172655665D6
:100400007273696F6E3E312E303C2F686172647773
:1004100061726556657273696F6E3E3C736F667488
:100420007761726556657273696F6E3E312E333C2B
:100430002F736F66747761726556657273696F6E3C
:100440003E3C2F6964656E74696669636174696FA7
:100450006E3E3C7365676D656E74206F7269676987
:100460006E3D2731303238272073706163653D2738
:10047000323533273E3C67726F7570206F66667346
:1004800065743D2730273E3C6E616D653E55736552
:1004900072204964656E74696669636174696F6E20
:1004A0003C2F6E616D653E3C646573637269707468
:1004B000696F6E3E41646420796F7572206F776E4C
:1004C000206465736372697074697665206E616D0E
:1004D0006520616E64206465736372697074696F0E
:1004E0006E20666F722074686973206E6F64652E6B
:1004F0003C2F6465736372697074696F6E3E3C7300
:100500007472696E672073697A653D273332273EBE
:100510003C6E616D653E4E6F6465204E616D653C5D
:100520002F6E616D653E3C2F737472696E673E3C41
:10053000737472696E672073697A653D2736342754
:100540003E3C6E616D653E4E6F646520446573632D
:1005500072697074696F6E3C2F6E616D653E3C2FE1
:10056000737472696E673E3C2F67726F75703E3CA4
:100570002F7365676D656E743E3C7365676D656E60
:1005800074206F726967696E3D273427207370612C
:1005900063653D27323533273E3C67726F757020A7
:1005A0007265706C69636174696F6E3D2738273EB0
:1005B0003C6E616D653E496E707574733C2F6E6163
:1005C0006D653E3C7265706E616D653E496E70751D
:1005D000743C2F7265706E616D653E3C7374726918
:1005E0006E672073697A653D27313627206F66660E
:1005F0007365743D27323630273E3C6E616D653E33
:100600004465736372697074696F6E3C2F6E616DBF
:10061000653E3C2F737472696E673E3C6576656E0D
:10062000746964206F66667365743D272D323736B2
:1006300027203E3C6E616D653E416374697661744E
:10064000696F6E204576656E743C2F6E616D653EF8
:100650003C2F6576656E7469643E3C6576656E74A4
:1006600069643E3C6E616D653E496E616374697696
:100670006174696F6E204576656E743C2F6E616D96
:10068000653E3C2F6576656E7469643E3C2F6772EB
:100690006F75703E3C67726F7570207265706C6923
:1006A000636174696F6E3D2738273E3C6E616D65EE
:1006B0003E4F7574707574733C2F6E616D653E3C72
:1006C0007265706E616D653E4F75747075743C2F08
:1006D0007265706E616D653E3C737472696E672001
:1006E00073697A653D27313627206F6666736574B6
:1006F0003D27323630273E3C6E616D653E44657362
:100700006372697074696F6E3C2F6E616D653E3CFB
:100710002F737472696E673E3C6576656E746964AA
:10072000206F66667365743D272D32373627203E6D
:100730003C6E616D653E41637469766174696F6E8C
:10074000204576656E743C2F6E616D653E3C2F656D
:1007500076656E7469643E3C6576656E7469643E68
:100760003C6E616D653E496E616374697661746962
:100770006F6E204576656E743C2F6E616D653E3CF4
:100780002F6576656E7469643E3C2F67726F757075
:100790003E3C2F7365676D656E743E3C2F636469E4
:1007A0003E005A2E11241FBECFEFD1E2DEBFCDBFD7
:1007B00000E00CBF12E0A0E0B2E0E4ECF8E600E0FC
:1007C0000BBF02C007900D92A83DB107D9F726E0F4
:1007D000A8EDB2E001C01D92AE33B207E1F713E01D
:1007E000C2EDD3E000E006C021970109802FFE0191
:1007F0000E94DB32C13DD10780E00807A9F70E94C3
:10080000A72F0C946034FCCBCF92DF92EF92FF9233
:100810000F931F93CF93DF936C017A018B01C0E09C
:10082000D0E0CE15DF0589F0D8016D918D01D6019C
:10083000ED91FC910190F081E02DC6011995892B75
:1008400011F47E0102C02196ECCFC701DF91CF9158
:100850001F910F91FF90EF90DF90CF90089588ED5A
:1008600092E00E94F21721E0892B09F420E0822F08
:1008700008950F931F930E943C1C0091B6031091A2
:10088000B7032091B8033091B903DC01CB01801B81
:10089000910BA20BB30BC297A105B10538F463E02D
:1008A00070E080E090E00E94041CE5CF0E943C1CB8
:1008B0006093B6037093B7038093B8039093B90322
:1008C0001F910F9108950E94F732EF92FF920F93BC
:1008D0001F93CF93DF93EC0181E0888F9B8D8C8DEC
:1008E000981305C0E889F989808185FD24C0F62E1A
:1008F0000B8D10E00F5F1F4F0F731127E02E8C8DB3
:10090000E8120CC00FB607FCFACFE889F98980819C
:1009100085FFF5CFCE010E94A91AF1CF8B8DFE0184
:10092000E80FF11DE35AFF4FF0820B8FEA89FB8934
:100930008081806207C0EE89FF896083E889F98938
:1009400080818064808381E090E0DF91CF911F916E
:100950000F91FF90EF900895CF93DF93EC01888D76
:100960008823C9F0EA89FB89808185FD05C0A889B3
:10097000B9898C9186FD0FC00FB607FCF5CF808139
:1009800085FFF2CFA889B9898C9185FFEDCFCE0183
:100990000E94A91AE7CFDF91CF910895CF93C82F76
:1009A0002A9885E00E94E6168CE20E94E6168C2FBB
:1009B0000E94E61680E00E94E6162A9ACF910895DA
:1009C000E091D802F091D9020190F081E02D682FDA
:1009D00088ED92E019940F931F93CF93DF938C01CE
:1009E000C0E0D0E0F801EC0FFD1F6491662371F0C8
:1009F000E091D802F091D9020190F081E02D88EDCC
:100A000092E01995892B11F02196ECCFCE01DF9160
:100A1000CF911F910F9108956115710579F0FB0138
:100A200001900020E9F73197AF01461B570BDC011D
:100A3000ED91FC910280F381E02D199480E090E02B
:100A400008954F925F926F927F92EF92FF920F9371
:100A50001F93CF93DF93CDB7DEB7A1970FB6F8946E
:100A6000DEBF0FBECDBF7C01FA01CB0119A222303F
:100A700008F42AE08E010F5D1F4F422E512C612C8D
:100A8000712CBF01A30192010E943E34F901CA01F9
:100A9000015011096A3014F4605D01C0695CD8012D
:100AA0006C93232B242B252B61F7B801C701B4DFEE
:100AB000A1960FB6F894DEBF0FBECDBFDF91CF91E8
:100AC0001F910F91FF90EF907F906F905F904F90EC
:100AD00008951F920F920FB60F9211240BB60F922A
:100AE0002F933F934F935F936F937F938F939F9336
:100AF000AF93BF93EF93FF9388ED92E00E94A91A02
:100B0000FF91EF91BF91AF919F918F917F916F91E5
:100B10005F914F913F912F910F900BBE0F900FBEA1
:100B20000F901F9018951F920F920FB60F921124DD
:100B30000BB60F922F938F939F93EF93FF93E091B8
:100B4000E802F091E9028081E091EE02F091EF027B
:100B500082FD12C090818091F1028F5F8F7320918E
:100B6000F202821751F0E091F102F0E0E852FD4FFD
:100B7000958F8093F10201C08081FF91EF919F9149
:100B80008F912F910F900BBE0F900FBE0F901F9063
:100B900018954F925F926F927F928F929F92AF9231
:100BA000BF92CF92DF92EF92FF920F931F93CF935A
:100BB000DF93EC018B01742EDB011F96ED90FC900E
:100BC0005097E114F104E1F52B01B9E04B0E511CF3
:100BD0005C01EEE5AE0EB11CD5016C90C12CD12CA0
:100BE000E61408F09DC04701F50181819281B201B0
:100BF0008C0D9D1D0E94FB22FFEFEF1AFF0A96014C
:100C0000275F3F4F8823D1F0D5011396ED91FC91DA
:100C10001497E80DF91D80818F3F11F08F5F80835D
:100C2000F50181819281FC01EC0DFD1D868197818A
:100C3000D80150969C938E931F9702C06901D0CF24
:100C4000F80182899E012C5F3F4F6901668177819F
:100C5000E72CF12C711016C0893050F0C9010E94A8
:100C600037218C819D81AE81BF81B871B36018C07E
:100C7000C9010E9437218C819D81AE81BF81B871ED
:100C8000B26021C090E08E199F0909979CF0C901BC
:100C90000E9437218C819D81AE81BF81B871B46083
:100CA0008C839D83AE83BF83D8011F966D917C9109
:100CB000509710C0C9010E9437218C819D81AE815F
:100CC000BF81B871B5608C839D83AE83BF83F8010B
:100CD00067857089C6010E940021D80152962C9127
:100CE00030E02E193F092930310514F028E030E0BA
:100CF000D22E2987DE011A9680E090E08D1548F407
:100D0000FC01EE0DFF1DE00FF11F23892D930196CD
:100D1000F5CFCE010E94CB0E8823D9F38D2D0AC0CA
:100D2000E881F9810484F585E02DA201B801CE01A6
:100D3000199580E0DF91CF911F910F91FF90EF9077
:100D4000DF90CF90BF90AF909F908F907F906F90EB
:100D50005F904F9008954F925F926F927F928F9223
:100D60009F92AF92BF92CF92DF92EF92FF920F933A
:100D70001F93CF93DF93CDB7DEB762970FB6F8948A
:100D8000DEBF0FBECDBF8C016C0125E2C20ED11CAF
:100D9000DC0195968D909D90AD90BC9098979401B4
:100DA0003F707C01B6E4EB0EF11CF7018285938560
:100DB0002817390709F051C08185873040F4833006
:100DC000F8F48130A1F150F41386128646C08830C1
:100DD00071F180F08E3109F040C029C0F801EB5B61
:100DE000FF4F8081882361F0C6010E94CF1F8111CF
:100DF00034C006C0F801EB5BFF4F8081811104C055
:100E0000C6010E94652021C0C6010E946520811193
:100E100024C0B3FC1CC08824B0EF9B22B7E0BB22E7
:100E200081149104E0E7AE06B10489F416C0C6014E
:100E30000E946520882329F084E1D70119968C93BC
:100E40000CC0F801EB5BFF4F8081811106C0B70138
:100E5000695F7F4FC7010E943D22198A188A1A8A4A
:100E60001A861B861C861D861E861F86C6010E944A
:100E7000AF1F782EF80185A096A0A7A0B0A4882364
:100E8000A1F1B3FE21C08824F0EF9F22BB2481147E
:100E9000910429E4A206B104B9F4D8019A968C9180
:100EA000863009F05AC0CE0101960E94C517BE01D6
:100EB0006F5F7F4FC6010E94E21FD7011A968D9186
:100EC0009C911B97892B61F5F80185A196A1A7A19B
:100ED000B0A5B3FF18C28827907FBB278115904823
:100EE000A844B10509F00FC259C0D501C401882733
:100EF000907FBB2724013501442455246624E8E073
:100F00007E22B3FE06C00097A741B10509F057C184
:100F100067C081159042A047B10509F050C12CC1AE
:100F20001796AD90BC901897A114B10469F2F50121
:100F30008085882349F2B501CE0101960E94D62210
:100F4000882311F2F70181819281DC01ED91FC91FE
:100F50000284F385E02DB5011FC0D7011A968D914B
:100F60009C911B97892B09F4AFCF17966D917C91BB
:100F700018976115710509F4A7CFFB0180858823B7
:100F800009F4A2CF11968D919C911297DC01ED91FD
:100F9000FC910284F385E02D199596CFC6010E943D
:100FA000A1209C01F70167817085DB0118969C9157
:100FB000992309F451C0D7011A968D919C911B97E2
:100FC0008217930709F048C011968D919C91129752
:100FD000DC01ED91FC910284F385E02D19953CC074
:100FE000BE01665F7F4FC6010E941022BE01665F90
:100FF0007F4FC6010E94E21F88899989892B71F170
:10100000780123E6E20EF11CB701CE010A960E9498
:10101000D622782E882309F476C1BE01665F7F4F01
:10102000C801825A9F4F0E943123D70117961C9204
:101030001E92169718961C9218971C9211961C9245
:10104000119712961C92129713961C92139714964E
:101050001C92149715961C92711055C1CE010196E1
:101060000E94C517BE016F5F7F4FC6010E9410220C
:101070007801FEE5EF0EF11CBE016F5F7F4FC701E7
:101080000E94FB1E811108C0C6010E94A120988702
:101090008F83892BA1F125C02F813885A9015F702D
:1010A000CA01A0E0B0E0F80145A156A167A170A572
:1010B0004427507F7F71482B592B6A2B7B2BD801FB
:1010C00045A356A367A370A732AF21AFFE013196A7
:1010D000D396CE01079621912D93E817F907D9F7FA
:1010E000D3CFBE016F5F7F4FC7010E94FB1E8823D5
:1010F00069F06F817885C6010E94002107C01986BA
:1011000019821A821B821C821D821E82F801E280D3
:10111000F380A12CB12C912CE114F10401F18F8109
:101120009885009759F0D7011696ED91FC91179785
:10113000268137818217930709F45F01D701ED916A
:10114000FC910280F381E02DB601C7011995882337
:1011500011F099249394F701E280F380DDCFF80138
:10116000EB5BFF4F80818111CEC0A114B10409F463
:10117000CAC09110C8C09EC0BE01665F7F4FC60145
:101180000E94E21FF70182859385892B09F4BBC079
:10119000D7011796AD90BC901897B501CE010A966D
:1011A0000E94D622782E882309F4ADC0B501D7015C
:1011B00011968D919C9112970E9473114DCFC6018B
:1011C0000E94CF1F9801225A3F4F7901882329F1AD
:1011D000BE01665F7F4FC6010E941022F80165A123
:1011E00076A17F70C7010E94C61ED80112960D918C
:1011F0001C9113970115110509F485C0D801ED91D3
:10120000FC910480F581E02DBE01665F7F4FC8012F
:101210001995F80102811381EDCF4528462847280A
:1012200009F01CCF8824F0EF9F22F7E0BF22811441
:1012300020E1920620E7A206B10409F00FCFBE011B
:10124000665F7F4FC6010E94E21FCE010A960E9490
:10125000F721F80165A176A181110AC07F70798B11
:10126000688BBE01665F7F4FC7010E9431234BC070
:101270007F70C7010E94C61ED80112960D911C9165
:1012800013970115110509F43EC0BE01665F7F4F3B
:10129000C6010E941022D801ED91FC910480F581D5
:1012A000E02DBE01665F7F4FC8011995F8010281EC
:1012B0001381E7CFBE016F5F7F4FC6010E941022EE
:1012C0000E94F2168823F9F0D50116966D917C9153
:1012D00017977801B4E0EB0EF11CC7010E9437218B
:1012E00068E670E0C7010E947F206F817885C701A2
:1012F0000E94002184E0F801818714861586C801C8
:101300004AD58823E1F362960FB6F894DEBF0FBE8C
:10131000CDBFDF91CF911F910F91FF90EF90DF90A4
:10132000CF90BF90AF909F908F907F906F905F9085
:101330004F900895AF92BF92CF92DF92EF92FF92BB
:101340000F931F93CF93DF938C01EC01CB5BDF4FA7
:101350008881882319F0C801FEDC188280EB0E9486
:10136000EC16E82E809124068E2121F0109224069E
:1013700084E90BC0E6FE06C08E2D8078809324069B
:1013800080E903C0E7FE8CC0F1CF2A980E94E616E0
:101390008FEF0E94E616F82E8FEF0E94E616982F28
:1013A0002F2D30E0482F48708FEF8EBD93FF25C062
:1013B000B5E0220F331FBA95E1F7D80198963C9318
:1013C0002E9397970DB407FEFDCF8EB5F80186A337
:1013D0008FEF8EBD292F237087A1822B969596952E
:1013E00096959C71982B97A30DB407FEFDCF8EB5F3
:1013F000D80195968C9341E01CC0A3E0220F331FC7
:10140000AA95E1F7F80136A325A30DB407FEFDCF99
:101410008EB58FEF8EBD929596959770D801959663
:101420008C919597982B95969C930DB407FEFDCFC4
:101430008EB5F80181A540FB81F981A78FEF0E944D
:10144000E616E3FA992790F9D80199962C91999785
:1014500090FB20F999962C9399978F70F82E9A9675
:101460008C935801BBE2AB0EB11C65018C2D8A191F
:101470008F1538F48FEF0E94E616F60181936F0105
:10148000F5CF2A9AE6FE02C081E001C082E086DA4A
:101490001882C80160DC81E0F801EF58FF4F8083BB
:1014A000E801CA5BDF4F8881E82EF12CFE0141E1A3
:1014B000849FE00DF11D1124E1858E2F90E0FC0149
:1014C0003297E831F10508F0BAC18827EE58FF4F8E
:1014D0008F4F0C94DB3281E18E9DF0018F9DF00DDA
:1014E0001124EC0FFD1F87819085892B11F082E07C
:1014F00001C081E08187F1E1BF2EBE9CF001BF9C5D
:10150000F00D1124EC0FFD1FC780D084E980FA8014
:101510000E94F216882309F48AC1D60116966D91AD
:101520007C911797C70104960E943721F7018481A7
:101530009581A681B7819F70AA27B07F9063A0672D
:1015400084839583A683B78386E08187F601D701DC
:101550001A9601900D928A95E1F7C7011CD4882351
:10156000E1F36DC181E18E9DF0018F9DF00D11249D
:10157000EC0FFD1FA781B0858285938516962D916E
:101580003C9117972817390721F017969C938E9353
:1015900016978881E1E1FE2EFE01F89EE00DF11D17
:1015A000112483E081876781708541E089819A8178
:1015B0000E947721811143C18881FE01F89EE00DD0
:1015C000F11D112482E03AC171E1D72EDE9CF001B9
:1015D000DF9CF00D1124EC0FFD1F84E081876781F3
:1015E000708542E089819A810E947721811127C10B
:1015F0008881FE01D89EE00DF11D112483E01EC1FB
:1016000061E1D62EDE9CF001DF9CF00D1124EC0F81
:10161000FD1F85E081876781708543E089819A811C
:101620000E94772181110BC18881FE01D89EE00DB7
:10163000F11D112484E002C10E943C1C51E1D52E11
:10164000DE9CF001DF9CF00D1124EC0FFD1F648780
:101650007587868797878881FE01D89EE00DF11DEA
:10166000112486E081876781708544E089819A81B1
:101670000E9477218111E3C08881FE01D89EE00D90
:10168000F11D112485E0DAC00E943C1C4881242F02
:1016900030E0FE0151E1459FE00DF11D1124C484AD
:1016A000D584E684F784DC01CB018C199D09AE0951
:1016B000BF09843F9140A105B10508F4C0C08781EE
:1016C0009085892B11F087E001C081E0818741E19D
:1016D000F42EF29EF001F39EF00D1124EC0FFD1F8D
:1016E0006781708589819A810E9448218111A7C0F4
:1016F0008881FE01F89EE00DF11D112486E09EC058
:1017000081E18E9DF0018F9DF00D1124EC0FFD1FE6
:1017100087819085892B11F08EE101C081E081875E
:1017200031E1D32EDE9CF001DF9CF00D1124EC0F93
:10173000FD1F6781708589819A810E9448218111EE
:101740007EC08881FE01D89EE00DF11D112484E148
:1017500075C021E1D22EDE9CF001DF9CF00D11243A
:10176000EC0FFD1F8EE1818789819A81DC012D912B
:101770003C9167817085D9011A96ED91FC911B9778
:10178000199581115CC08881FE01D89EE00DF11D84
:10179000112489E153C091E1D92EDE9CF001DF9C38
:1017A000F00D1124EC0FFD1F88E0818767817085A3
:1017B00089819A8198D5811142C08881FE01D89E85
:1017C000E00DF11D112487E039C081E1D82EDE9CA7
:1017D000F001DF9CF00D1124EC0FFD1F8EE18187DD
:1017E000A780B084E980FA800E94F2168823A9F1CC
:1017F000F501668177816701F4E0CF0ED11CC60147
:101800000E94372160E071E0C6010E947F2086E0DF
:10181000D70119968C931997F5011A9601900D929C
:101820008A95E1F7C701B7D28823E1F31EC088810A
:10183000FE01B89EE00DF11D11248FE08187188212
:10184000C801DF91CF911F910F91FF90EF90DF9032
:10185000CF90BF90AF900C9420248881FE01D89E39
:10186000E00DF11D112488E0E9CF8881FE01B1E18E
:101870008B9FE00DF11D11240780F085E02D81E0A4
:101880008087DDCF089580E090E0089581E008959D
:1018900081E0089580E00895CF93DF93FC01828179
:1018A0009381DB0113969C938E93129773836283CB
:1018B0001696CD91DC911797EA5BFF4F8781908553
:1018C000C817D90709F450C018868185813019F4EA
:1018D000379651F406C0811102C0379602C0E0E08D
:1018E000F0E0309709F4FFCFD183C08383819481E6
:1018F000009721F09F838E8387E035C088814981DE
:1019000050E060E070E0762F652F542F4427682B5D
:101910008A81482B2B818C8190E0A0E0B0E0BA2F27
:10192000A92F982F8827A22B2D81822B9C01242759
:101930003527CCE07695679557954795CA95D1F7A9
:1019400042275327DCE0B695A79597958795DA95BA
:10195000D1F7842795279F70009711F481E090E0DC
:101960009483838382E08283DF91CF910895CF9324
:10197000DF93CDB7DEB729970FB6F894DEBF0FBE61
:10198000CDBF198621E029832A831B821C821D82F8
:101990001E822EEF2F831886DC01ED91FC910288C8
:1019A000F389E02DAE014F5F5F4F199529960FB671
:1019B000F894DEBF0FBECDBFDF91CF9108958F9217
:1019C0009F92AF92BF92CF92DF92EF92FF920F93CE
:1019D0001F93CF93DF93CDB7DEB729970FB6F89457
:1019E000DEBF0FBECDBFDC011696ED91FC911797BF
:1019F000309709F43FC0D084DD2009F468C17B0131
:101A00008C01CB010E947B1FD82E81111DC0F701D4
:101A100080819181A281B381B3FF2CC08827907F00
:101A2000BB272CE0B695A795979587952A95D1F772
:101A30008832FAE09F07A105B105F1F088349A4099
:101A4000A105B105B9F442C0CE0101960E94C517A7
:101A5000C7010E94A12098878F83F8016681778152
:101A60006115710539F0CE0101960E94FB22D82E36
:101A7000811173C0D12C2BC1CE0101960E94C517D4
:101A8000C7010E94A12098878F83D80116966D9177
:101A90007C9117976115710509F419C1CE01019662
:101AA0000E94FB22F82E882309F411C1D801ED9180
:101AB000FC910084F185E02D40E050E061E0C80138
:101AC000199581E0F8018187DF2C01C1CE010196D3
:101AD0000E94C517C7010E94A12098878F83D80153
:101AE00016966D917C9117976115710509F4EFC0F9
:101AF000CE0101960E94FB22C82E882309F4E7C07C
:101B0000F7018581833030F1D70117964C911797F3
:101B100050E0542F442718968C91482B55FF05C050
:101B200081E0F801868717860AC0D8011E961C92AC
:101B30001E971F961C921F9781E019968C93D801CF
:101B4000ED91FC910084F185E02D60E0C8011995CC
:101B5000DC2CBDC040E050E0E1CFBE016F5F7F4FA5
:101B6000C7010E941022D7011596BC90C7010E94A0
:101B7000551FA82EF80180889188882329F0D80164
:101B800018968C91811147C0C7010E94421FC82E30
:101B9000882321F0F801808581113DC0B401CE0178
:101BA00001960E94FB22882371F1D80118968C912E
:101BB000811129C0A1102FC0C1102DC0A7014A5FFB
:101BC0005F4F80E090E0D8015096ED91FC915197E5
:101BD0008B1558F4DA012D91AD013289E80FF91F08
:101BE000E30FF11D238B0196EECF82898B0D828B43
:101BF000C7010E94681F81111CC0C7010E94421FBB
:101C0000811117C064C0C7010E94681F81113AC0CA
:101C1000C11038C05CC0D80118961C921897F40106
:101C2000128A50966D917C915197C7010E941022A3
:101C3000C5CFD801ED91FC910680F781E02DC80158
:101C40001995D8015096ED91FC9151975496803F8B
:101C50002FEF920749F429E001900D922A95E1F7C0
:101C6000F801968F858F0AC029E001900D922A9580
:101C7000E1F7D8015E969C938E935D9781E0F80121
:101C8000808725C0D80118968C91882391F099E01F
:101C9000FE013196D801549601900D929A95E1F784
:101CA00020E030E6D8015E963C932E935D97D82EC7
:101CB0000EC089E0FE013196D801549601900D9234
:101CC0008A95E1F780E090E2F801968F858F8D2D5F
:101CD00029960FB6F894DEBF0FBECDBFDF91CF912E
:101CE0001F910F91FF90EF90DF90CF90BF90AF903A
:101CF0009F908F900895EF92FF920F931F93CF9331
:101D0000DF93EC017B010E94F423CA5BDF4F0F815C
:101D10001885B801F701868197810E94FB228823EC
:101D200021F08FE08987F8011086DF91CF911F9114
:101D30000F91FF90EF9008951F93CF93DF93EC01E5
:101D40001985112319F11986AA89BB898BE5FB0135
:101D500001900D928A95E1F7EE81FF81AA89BB89F6
:101D60008681978117969C938E931697CF0106963E
:101D700021912D93E817F907D9F781E08E871F8607
:101D80000E943C1C6A877B878C879D87812FDF910F
:101D9000CF911F910895AF92BF92DF92EF92FF9281
:101DA0000F931F93CF93DF93EC010E94F216D82E6E
:101DB000882309F479C080EA0E94EC1682FF06C0ED
:101DC00084FF06C086FDF7CF14E003C010E001C019
:101DD00012E02A98812F8064F9D7888581FF1BC083
:101DE0008E819F8135E0969587953A95E1F78EBD76
:101DF0009E8188E0989F90011124207E2860937036
:101E0000822F892B0DB407FEFDCF9EB5DFD78D81C4
:101E1000DDD78C8115C08C819D8123E096958795B7
:101E20002A95E1F78EBD9C81892F8295880F807E4F
:101E30000DB407FEFDCF9EB5C9D780E0C7D780E0BF
:101E4000C5D709850F70888580FF04C0802F806406
:101E5000BDD710C0802FBAD75E01EAE0AE0EB11C2C
:101E600075018E2D8A19801728F4F70181917F0161
:101E7000ADD7F7CF2A9AF5E0FA95F1F700002A9846
:101E8000111101C011E0812F8068A0D72A9ADE01CC
:101E90009596FE01349681E201900D928A95E1F7C4
:101EA000CB5BDF4F81E088838D2DDF91CF911F9138
:101EB0000F91FF90EF90DF90BF90AF9008950F9338
:101EC0001F93CF93DF93EC018B018CD7882361F0B4
:101ED00081E2F801DE01149601900D928A95E1F7F6
:101EE000CE0159DF8823E1F3DF91CF911F910F914C
:101EF0000895EF92FF920F931F93CF93DF93EC011E
:101F00008B017A016FD78823D9F0F8016681778138
:101F10008E010C5F1F4FC8010E94372167E475E0F6
:101F2000C8010E947F2088E08987F701DE011A96A8
:101F300001900D928A95E1F7CE012DDF8823E1F320
:101F4000DF91CF911F910F91FF90EF900895EF9245
:101F5000FF920F931F93CF93DF93EC018B017A01D4
:101F600041D78823D9F0F801668177818E010C5F13
:101F70001F4FC8010E94372164E975E0C8010E9423
:101F80007F2088E08987F701DE011A9601900D9283
:101F90008A95E1F7CE01FFDE8823E1F3DF91CF914F
:101FA0001F910F91FF90EF900895EF92FF920F9382
:101FB0001F93CF93DF93EC018B017A0113D7882312
:101FC000D9F0F801668177818E010C5F1F4FC8013F
:101FD0000E94372167EC74E0C8010E947F2088E0EE
:101FE0008987F701DE011A9601900D928A95E1F733
:101FF000CE01D1DE8823E1F3DF91CF911F910F91C4
:10200000FF90EF900895EF92FF920F931F93CF935D
:10201000DF93EC018B017A01E5D68823D9F0F80132
:10202000668177818E010C5F1F4FC8010E943721A6
:1020300064EB75E0C8010E947F2088E08987F70182
:10204000DE011A9601900D928A95E1F7CE01A3DE8A
:102050008823E1F3DF91CF911F910F91FF90EF90D3
:102060000895EF92FF920F931F93CF93DF93EC01AC
:102070007B01B8D68823D9F0F701668177818E017C
:102080000C5F1F4FC8010E94372160E771E0C80153
:102090000E947F2086E08987F701DE011A96019071
:1020A0000D928A95E1F7CE0176DE8823E1F3DF9188
:1020B000CF911F910F91FF90EF900895CF92DF92F3
:1020C000EF92FF920F931F93CF93DF93EC018B015D
:1020D0006A01F22EE32E86D68823E1F0F8016681AC
:1020E00077818E010C5F1F4FC8010E94372168E481
:1020F0007AE0C8010E947F20F60166817781C801DD
:102100000E94002184E08987EC86FD86CE0143DEB3
:102110008823E1F3DF91CF911F910F91FF90EF9012
:10212000DF90CF900895EF92FF920F931F93CF937C
:10213000DF938C01EB017A0155D68823B1F06E81D3
:102140007F81E8012496CE010E94372168E27AE07F
:10215000CE010E947F20F70166817781CE010E9427
:102160000021C80118DE8823E1F3DF91CF911F9190
:102170000F91FF90EF900895CF92DF92EF92FF9230
:102180000F931F93CF93DF93EC018B018D599F4FDA
:102190000E94F721811116C00E943C1CFE01E459E7
:1021A000FF4FC080D180E280F380DC01CB018C192D
:1021B0009D09AE09BF09803D9740A105B10510F406
:1021C00010E01EC00FD68823D9F3F801668177810D
:1021D0008E010C5F1F4FC8010E94372160E974E037
:1021E000C8010E947F20CE01D6DD182F8823D9F3A5
:1021F0000E943C1CC459DF4F688379838A839B8388
:10220000812FDF91CF911F910F91FF90EF90DF9081
:10221000CF9008958F929F92AF92BF92CF92DF920C
:10222000EF92FF920F931F93CF93DF93EC016B011B
:102230007A018C010D591F4FC8010E94F7218111AD
:1022400016C00E943C1CFE01E459FF4F8080918023
:10225000A280B380DC01CB0188199909AA09BB09C6
:10226000803D9740A105B10510F410E02EC0BAD50D
:102270008823D9F389E0F701D80101900D928A955E
:10228000E1F7F601668177818E010C5F1F4FC8016F
:102290000E94372160E974E0C8010E947F2086E037
:1022A0008987F701DE011A9601900D928A95E1F770
:1022B000CE0171DD182F8823D9F30E943C1CC4592C
:1022C000DF4F688379838A839B83812FDF91CF914E
:1022D0001F910F91FF90EF90DF90CF90BF90AF9044
:1022E0009F908F9008950F931F93CF93DF93EC01EE
:1022F0008B0178D5882309F1F80166817781CE01B9
:1023000004960E9437218C819D81AE81BF819F7090
:10231000AA27B07F9061A0678C839D83AE83BF8323
:1023200086E08987F801DE011A9601900D928A9560
:10233000E1F7CE0130DD8823E1F3DF91CF911F91EA
:102340000F9108959FB7F89480912606882319F07D
:1023500081508093260680912606811105C08CB598
:102360008F7B8CBD109225069FBF08950F931F93FE
:10237000CF93DF9300D000D0CDB7DEB7022F2983F3
:10238000132F3A83242F4B83352F5C83462F6D8385
:10239000572F7E83DC01ED91FC910288F389E02DBB
:1023A00060E0199526960FB6F894DEBF0FBECDBF3C
:1023B000DF91CF911F910F9108950F931F93CF93AA
:1023C000DF9300D000D0CDB7DEB7022F2983132FC3
:1023D0003A83242F4B83352F5C83462F6D83572FF1
:1023E0007E83DC01ED91FC910484F585E02D60E0B5
:1023F000199526960FB6F894DEBF0FBECDBFDF91BC
:10240000CF911F910F910895089580E00895089548
:10241000CF93DF93EC010E94C523CE01DF91CF91D2
:102420000C9483238EBD00000DB407FEFDCF8EB546
:1024300008951F93CF93DF93EC0160E08A810E949F
:102440008A1B80EAEFDF8FEFEDDF182F61E08A81D2
:102450000E948A1B812FDF91CF911F910895E9DFA0
:1024600083700895EF92FF921F93CF93DF931F9293
:102470001F92CDB7DEB77C01162F60E0FC01828190
:102480002A8349830E948A1B85E0CCDF812FCADF23
:102490004981842FC7DF2A81822FC4DF61E0F701E1
:1024A00082810F900F90DF91CF911F91FF90EF905D
:1024B0000C948A1B23E043E06BE2D4CF262F40EE3E
:1024C0006FE0D0CF1F93CF93DF93662321F061306D
:1024D000F1F414E201C010E2EC0160E8EFDF60E02B
:1024E0008A810E948A1B812F9DDF80E09BDF80E034
:1024F00099DF80E097DF80E095DF61E08A810E94CC
:102500008A1B60E0CE01DF91CF911F91D7CFDF9181
:10251000CF911F9108957F928F929F92AF92BF9219
:10252000CF92DF92EF92FF920F931F93CF93DF939F
:1025300000D000D0CDB7DEB75C01962E832F3C8350
:102540006801E22E8F71F82E20E040E660E6C501BA
:1025500089DF20E040E660E7C50184DF992031F0A3
:1025600081E0981289C044E2942E02C030E2932E9A
:102570008C819701860186FF19C095E136952795D4
:10258000179507959A95D1F7D701C6012DE0B69515
:10259000A795979587952A95D1F7807E9E2D937064
:1025A000182F192B18607D2C8C2C0DC083E03695CC
:1025B0002795179507958A95D1F71C2D1295110F20
:1025C000107E812C712C85E491E00E94EB04492D52
:1025D00050E060E070E020E188ED92E00E9421058B
:1025E0008CE20E94E00420E1B701A60188ED92E0B0
:1025F0000E9421058CE20E94E0044C8146FB4427A6
:1026000040F950E060E070E022E088ED92E00E9446
:1026100021056EEC72E088ED92E00E940C0560E806
:10262000C5014CDF60E0F50182810E948A1B892D83
:10263000F9DE802FF7DE812FF5DE872DF3DE882D82
:10264000F1DE61E0F50182810E948A1B60E0C50134
:1026500026960FB6F894DEBF0FBECDBFDF91CF91A7
:102660001F910F91FF90EF90DF90CF90BF90AF90B0
:102670009F908F907F9022CF26960FB6F894DEBF62
:102680000FBECDBFDF91CF911F910F91FF90EF90C3
:10269000DF90CF90BF90AF909F908F907F900895E4
:1026A0001F93CF93DF93662361F0613061F0623056
:1026B00061F0633061F0643061F0653031F518E14C
:1026C00009C010E007C014E005C018E003C010E125
:1026D00001C014E1EC0160E8F1DE60E08A810E9453
:1026E0008A1B812F9FDE80E09DDE80E09BDE80E004
:1026F00099DE80E097DE61E08A810E948A1B60E0BB
:10270000CE01DF91CF911F91D9CEDF91CF911F9153
:1027100008957F928F929F92AF92BF92CF92DF9255
:10272000EF92FF920F931F93CF93DF93CDB7DEB756
:1027300027970FB6F894DEBF0FBECDBF3C8368016C
:10274000E22E232F2F71F22E662369F0613069F09B
:10275000623069F0633069F0643069F0653009F027
:1027600094C048E109C040E007C044E005C048E02B
:1027700003C040E101C044E136FF1CC0970186015F
:10278000E5E13695279517950795EA95D1F7902EAF
:1027900097018601FDE03695279517950795FA95DF
:1027A000D1F7007E2E2D2370202B2860A22E7D2CA9
:1027B0008C2C11C09701860153E03695279517950B
:1027C00007955A95D1F7902EAC2CA294AA0C70EED6
:1027D000A722812C712CB62E8C0188E391E04F83C7
:1027E0000E94EB044F8150E060E070E020E188ED52
:1027F00092E00E9421058CE20E94E00420E1B701F2
:10280000A60188ED92E00E9421058CE20E94E0047E
:102810004C8146FB442740F950E060E070E022E044
:1028200088ED92E00E9421056EEC72E088ED92E066
:102830000E940C0560E8C80141DE60E0F801828179
:1028400069D78B2DEFDD892DEDDD8A2DEBDD872D11
:10285000E9DD882DE7DD61E0F80182815BD760E08A
:10286000C80127960FB6F894DEBF0FBECDBFDF912B
:10287000CF911F910F91FF90EF90DF90CF90BF907D
:10288000AF909F908F907F9019CE27960FB6F894B7
:10289000DEBF0FBECDBFDF91CF911F910F91FF9093
:1028A000EF90DF90CF90BF90AF909F908F907F90F0
:1028B0000895EF92FF921F93CF93DF931F92CDB7AE
:1028C000DEB77C01162F60E0FC018281498322D7AC
:1028D00082E0A8DD812FA6DD4981842FA3DD61E0A0
:1028E000F70182810F90DF91CF911F91FF90EF90C0
:1028F00011C76F927F928F929F92AF92BF92CF92A9
:10290000DF92EF92FF920F931F93CF93DF931F926B
:102910001F92CDB7DEB78C013B018BDD82FF09C072
:1029200084FF0CC086FDB2C024E8B22E34E4932E9E
:1029300009C081E8B82E90E4992E04C0A2E8BA2E0E
:10294000B2E49B2EF301308532953F709381892F3D
:10295000807497FF24C02081C22ED180E2809F71B5
:10296000F92EB701A601E5E176956795579547954C
:10297000EA95D1F7A42EB701A601FDE076956795FB
:1029800057954795FA95D1F7407E9E2D9370492B28
:102990004860ED2CF22E8823C9F0306417C0F30193
:1029A000408151816281792F7F716A017B0193E0BF
:1029B000F694E794D794C7949A95D1F7AC2C4295A6
:1029C000440F407E81114061F12CE12C60E0F80160
:1029D00082813A8349839ED6892D24DD8A2D22DD8A
:1029E0004981842F1FDD8E2D1DDD8F2D1BDD3A814A
:1029F000832F18DD61ED72E088ED92E00E940C05F6
:102A00007301FBE0EF0EF11CC12CD12CF30180858A
:102A100082958F7090E0C816D906FCF44701F70143
:102A2000808100DD8CE20E94E004F701808180312A
:102A300018F480E30E94E004FFEFEF1AFF0AF401AC
:102A4000408150E060E070E020E188ED92E00E947B
:102A50002105FFEFCF1ADF0AD9CF6EEC72E088EDC7
:102A600092E00E940C0561E0F801828153D660E09B
:102A7000F80182814FD68B2DD5DC61E0F80182818F
:102A800049D6F301808582958F7001C080E00F9058
:102A90000F90DF91CF911F910F91FF90EF90DF90FA
:102AA000CF90BF90AF909F908F907F906F90089540
:102AB0004F925F926F927F928F929F92AF92BF924E
:102AC000DF92EF92FF920F931F93CF93DF93EC016E
:102AD0004B01CB01AEDC80FD05C081FD05C08B81C3
:102AE0008F7D96C010E901C014E960E0F401828195
:102AF00011D6812F97DC8FEF95DC082F8FEF92DCBA
:102B0000E82E8FEF8FDCD82E8FEF8CDC182F8FEF15
:102B100089DCF82E282F2F70922F9295907F888530
:102B20008F70892B88873E01FBE06F0E711C412C52
:102B3000512CA22EB12C4A145B044CF48FEF72DCA2
:102B4000F30181933F01FFEF4F1A5F0AF4CF61E079
:102B5000F4018281DFD52E2D30E0A90183E0559567
:102B600047958A95E1F78B8140FB87F98B83E82FA6
:102B7000E07E87FF30C0402F50E060E070E0F5E17C
:102B8000440F551F661F771FFA95D1F75D29412B1A
:102B90000E2D007E10E020E030E0ADE0000F111FB0
:102BA000221F331FAA95D1F7402B512B622B732B79
:102BB0008E2D8370682B488359836A83272F2F714A
:102BC0008F2D90E0B6E095958795BA95E1F7E22BC9
:102BD00080FBE6F91AC0F8E00F9FC0011124092E0E
:102BE000000CAA0BBB0BE294E69447E0E4228E298A
:102BF00088839983AA838B2F8F7154E0359527950D
:102C00005A95E1F7E82B20FBE6F9EB838B81806294
:102C10008B83CE01DF91CF911F910F91FF90EF90A9
:102C2000DF90BF90AF909F908F907F906F905F905C
:102C30004F9008958F929F92AF92BF92CF92DF9262
:102C4000FF920F931F93CF93DF931F92CDB7DEB701
:102C50006C014A015B01FFB6F89480912606811150
:102C600027C0E3E0F2E08491E9E4F2E09491E82FF8
:102C7000F0E0EE0FFF1FE058FE4FA591B491EC91EC
:102C8000E92329F461E085E3298344D5298161E0C2
:102C900085E329837DD58CB580618CBD8CB580643E
:102CA0008CBD61E084E374D561E083E371D5298153
:102CB000809126068F5F80932606FFBE60E0F601B6
:102CC0008281298327D580ECADDB61E0F60182812A
:102CD00021D5C6010E94C523C6010E9483232981F4
:102CE000F0E18F16F7E29F06A104B104C9F180E27A
:102CF00088168EE49806A104B104B1F1E0E58E16C1
:102D0000E3EC9E06A104B10499F1F0EA8F16F6E80F
:102D10009F06F1E0AF06B10479F188E4881688EEE9
:102D2000980681E0A806B10459F1E0E98E16E0EDBD
:102D30009E06E3E0AE06B10439F1F0E28F16F1EA47
:102D40009F06F7E0AF06B10419F180E4881682E42B
:102D500098068FE0A806B104F1F412E800ED1AC05D
:102D600015E008EB21E317C015E008EB28E113C0DC
:102D700015E008EB29E00FC015E008EB24E00BC0DC
:102D800015E008EB23E007C015E008EB21E003C0E5
:102D900015E008EB20E0422F6AE2C6018ADD402FF1
:102DA00069E2C60186DD412F68E2C60182DD60E08E
:102DB000C6010F90DF91CF911F910F91FF90DF908F
:102DC000CF90BF90AF909F908F9078CB8EBD0DB479
:102DD00007FEFDCF8EB508952A98F8DF8FEFF6DF56
:102DE0002A9A089580EAF8DF982F947581E0943547
:102DF00009F480E00895CF93C82F2A9883E0E6DF96
:102E00008C2FE4DF8FEFE2DF2A9ACF9108951F9392
:102E1000CF93DF931F92CDB7DEB7182F2A9882E0A9
:102E20006983D4DF812FD2DF6981862FCFDF2A9A91
:102E30000F90DF91CF911F910895CF92DF92EF9283
:102E4000FF920F931F93CF93DF93EC0115D56B0186
:102E50007C01CB01807E2E813F818217930709F48C
:102E600045C09F838E8360E0888D92D461E0888D19
:102E700051D40A851B85888D8DD321E00817190749
:102E800009F020E0298761E0888D82D46A8D888DE1
:102E900041D489859885891711F0888727C09B8D33
:102EA0009817A9F08B8F88899989AA89BB89809600
:102EB000A11DB11D8C8B9D8BAE8BBF8BC882D9821F
:102EC000EA82FB82188A198A1A8A1B8A0FC0D4D414
:102ED000088119812A813B81DC01CB01801B910B88
:102EE000A20BB30B888B998BAA8BBB8B80ECC8226F
:102EF000DD248C819D81C816D90699F1DD82CC82B2
:102F00008C859D85AE85BF854A855B8521E080FFE8
:102F10000AC0452B09F420E02A8FB595A79597950F
:102F20008795B06808C0452B09F020E02A8FB69538
:102F3000A795979587958C879D87AE87BF87898D45
:102F400080FD1A8E90E095958795898F6A8D888D82
:102F5000DF91CF911F910F91FF90EF90DF90CF9075
:102F6000D9C3DF91CF911F910F91FF90EF90DF9028
:102F7000CF900895FC011086108211821282138274
:102F800014821582168217820895FC011782168218
:102F90001086108211821282138214821582089583
:102FA000FC01918D828D981761F0828DDF01A80F51
:102FB000B11D5D968C91928D9F5F9F73928F90E073
:102FC00008958FEF9FEF0895FC01918D828D9817E2
:102FD00031F0828DE80FF11D858D90E008958FEF1F
:102FE0009FEF0895FC01918D228D892F90E0805CE8
:102FF0009F4F821B91098F739927089580E090E07D
:10300000892B21F00E942F04811125C080E090E0DF
:10301000892B41F080E090E0892B21F00E94000094
:1030200081111CC080E090E0892B41F080E090E0AD
:10303000892B21F00E940000811113C080E090E0F4
:10304000892BA1F080E090E0892B81F00E940000A4
:1030500081110AC008950E940000D8CF0E9400008C
:10306000E1CF0E940000EACF0C940000089590E0A8
:10307000FC013197E231F10508F04EC08827E65790
:10308000FF4F8F4F0C94DB32809180008F7703C00D
:10309000809180008F7D80938000089580918000D2
:1030A000877FF9CF84B58F7702C084B58F7D84BDCB
:1030B00008958091B0008F7703C08091B0008F7D1C
:1030C0008093B0000895809190008F7707C0809121
:1030D00090008F7D03C080919000877F8093900047
:1030E00008958091A0008F7707C08091A0008F7D08
:1030F00003C08091A000877F8093A00008958091F5
:1031000020018F7707C0809120018F7D03C08091BF
:103110002001877F8093200108953FB7F894809124
:103120002C0690912D06A0912E06B0912F0626B563
:10313000A89B05C02F3F19F00196A11DB11D3FBFEF
:10314000BA2FA92F982F8827820F911DA11DB11D7D
:10315000BC01CD0142E0660F771F881F991F4A9579
:10316000D1F70895EF92FF920F931F93CF93DF93C0
:10317000CDB7DEB762970FB6F894DEBF0FBECDBFF6
:103180008C01FC01A681B781109719F118968C91DA
:10319000882309F4A1C0FB0180819181A281B381C0
:1031A000B3FF17C07B018827907FBB272CE0B69523
:1031B000A795979587952A95D1F7883EFDE09F07BB
:1031C000A105B10541F088329840A105B10509F487
:1031D00043C080E081C0CE010A96D7DEC701B1D7D7
:1031E000998B888BD80116966D917C911797CE019B
:1031F0000A960E94FB22882309F46CC0D8015F96CE
:103200008C915F9787FF66C05C968D919C915D97CE
:1032100097FF60C05F961C92CE010196B6DEBE019C
:103220006F5F7F4FC7010E9410227801B1E2EB0E61
:10323000F11CD8011696ED91FC9117976681778164
:10324000C7010E94372168E07AE0C70158D76F8133
:103250007885C701D5D73BC0CE010A9696DEC70157
:1032600070D7998B888BF80166817781CE010A9699
:103270000E94FB22882371F1CE01019686DEBE01F9
:103280006F5F7F4FC7010E9410227801F1E2EF0EBD
:10329000F11CD8011696ED91FC9117976681778104
:1032A000C701E5D768E676E0C70129D76F81788541
:1032B000C701A6D788E0F80186A385ED81A788E13C
:1032C00082A713A614A615A616A681E0808791E012
:1032D000892F02C090E0FCCF62960FB6F894DEBF53
:1032E0000FBECDBFDF91CF911F910F91FF90EF9057
:1032F0000895FF920F931F93CF93DF93DC011696EF
:10330000ED91FC911797309709F4D7C020852223BF
:1033100009F4D3C0EC019F8D97FD45C088A18E5F55
:10332000891B893008F088E08EA34EA1DE019996B2
:1033300020E030E0892F990F990B52E0520F54177B
:1033400070F4F901E80FF91FE05BFE4FE491EC9394
:10335000EA3009F41C922F5F3F4F1196EECF8E0199
:103360000F5D1F4F8C819D81DC01ED91FC910084EC
:10337000F185E02DB80119958823A1F38EA1825023
:103380009F8D890F8F8F082E000C990B28A130E09C
:10339000821793070CF491C08FEF8F8F83E094E036
:1033A0009D8F8C8F8AC08C8D9D8D97FD73C022E080
:1033B0002EA38330944049F481E089A793E09EA333
:1033C00024E034E03D8F2C8F8E8F8E8D813041F53F
:1033D0008FEFFEA027E02F15B0F08823D9F00C8DD9
:1033E0001D8D043284E0180784F4C8010E9428343B
:1033F000FE01EF0DF11D87A3F394FEA20F5F1F4F97
:103400001D8F0C8FE6CF882329F08C8D9D8D843203
:10341000944034F084E294E09D8F8C8F82E08E8F14
:103420008E8D823039F58FEFFEA0B7E0BF15B0F07A
:103430008823D9F00C8D1D8D043A24E0120784F402
:10344000C8010E942834FE01EF0DF11D87A3F394FB
:10345000FEA20F5F1F4F1D8F0C8FE6CF882329F030
:103460008C8D9D8D843A94402CF08FEF9FEF9D8F33
:103470008C8F1E8E8E010F5D1F4F8C819D81DC0114
:10348000ED91FC910084F185E02DB8011995882318
:10349000A1F313C08885882381F018868D010F5D04
:1034A0001F4F8C819D81DC01ED91FC910084F185A1
:1034B000E02DB80119958823A1F3DF91CF911F91D9
:1034C0000F91FF9008950C943034BF92CF92DF9209
:1034D000EF92FF920F931F93CF93DF938C01B12C48
:1034E0002B2D30E0D8011A968D919C911B972817AF
:1034F000390720F5B9E0BB9E7001112483E0220F4B
:10350000331F8A95E1F7C12CD12CE9012496D8010B
:103510001896ED91FC911997EE0DFF1DEC0DFD1D18
:103520006081CE018C0D9D1DCEDFBFEFCB1ADB0A73
:10353000E8E0CE16D10459F7B394D2CF81E0DF9101
:10354000CF911F910F91FF90EF90DF90CF90BF90A0
:103550000895FC01848DDF01A80FB11DA35ABF4F50
:103560002C91848D90E001968F739927848FA68982
:10357000B7892C93A089B1898C9180648C93938DA9
:10358000848D981306C00288F389E02D80818F7D99
:1035900080830895CF93DF93282F30E0F901E65A16
:1035A000FD4F8491F901EC5EFD4FD491F901E25396
:1035B000FE4FC491CC2389F0811159DDEC2FF0E04E
:1035C000EE0FFF1FEC54FE4FA591B491EC91ED234B
:1035D00081E090E021F480E002C080E090E0DF91A3
:1035E000CF9108958F929F92AF92BF92CF92DF9228
:1035F000EF92FF920F931F93CF93DF93DC01169608
:10360000ED91FC911797309709F477C0208522231C
:1036100009F473C0EC0158E0952E6C01B5E1CB0EB6
:10362000D11CAA24A394B12C79E0872E888981111A
:103630004BC08A89811148C0760100E010E0F70193
:1036400081917F01A7DF9B89A501002E02C0440F55
:10365000551F0A94E2F7292F30E024233523002E4A
:1036600002C0359527950A94E2F7821303C0298991
:10367000222319F149274B8B21E030E0813011F0F2
:1036800020E030E0C801880F991F822B932B889E81
:103690009001899E300D1124E885F985E20FF31F12
:1036A000208526FF0AC0226020872E853F852817A7
:1036B000390708F4C9019F878E870F5F1F4F0830B5
:1036C000110509F0BCCF198A9A949110AFCFCE01A1
:1036D0000E9412282E853F858A859B8528173907E9
:1036E00009F41A8A8C89882341F0E881F9810084E1
:1036F000F185E02DCE0119951C8ADF91CF911F91A4
:103700000F91FF90EF90DF90CF90BF90AF909F9080
:103710008F9008951F93CF93DF93282F30E0F90106
:10372000E65AFD4F8491F901EC5EFD4FD491F90109
:10373000E253FE4FC491CC23C1F0162F811197DCC8
:10374000EC2FF0E0EE0FFF1FE656FE4FA591B4916F
:103750008FB7F894111105C09C91ED2FE095E923E6
:1037600002C0EC91ED2BEC938FBFDF91CF911F91B5
:103770000895FC018089811109C0CB016170772710
:10378000F1E06F27409796958795C4DF81E0089513
:10379000CF93DF9390E0FC01EC5EFD4F2491FC01A0
:1037A000E253FE4F8491882361F190E0880F991FC6
:1037B000FC01E058FE4FC591D491FC01E656FE4F46
:1037C000A591B491611109C09FB7F89488812095A3
:1037D00082238883EC912E230BC0623061F49FB763
:1037E000F8943881822F809583238883EC912E2B47
:1037F0002C939FBF06C08FB7F894E8812E2B2883A7
:103800008FBFDF91CF9108958F929F92AF92BF9219
:10381000CF92DF92EF92FF926B017C017EDC4B0135
:103820005C01C114D104E104F104E9F076DCDC01AF
:10383000CB0188199909AA09BB09883E9340A105C3
:10384000B10578F321E0C21AD108E108F10888EE49
:10385000880E83E0981EA11CB11CC114D104E104A0
:10386000F10421F7DECFFF90EF90DF90CF90BF9073
:10387000AF909F908F9008952FB7F894609128068D
:103880007091290680912A0690912B062FBF0895EA
:103890001F920F920FB60F9211242F933F938F9385
:1038A0009F93AF93BF938091280690912906A09192
:1038B0002A06B0912B063091270623E0230F2D37DF
:1038C00020F40196A11DB11D05C026E8230F029624
:1038D000A11DB11D209327068093280690932906E9
:1038E000A0932A06B0932B0680912C0690912D066A
:1038F000A0912E06B0912F060196A11DB11D8093B7
:103900002C0690932D06A0932E06B0932F06BF9100
:10391000AF919F918F913F912F910F900FBE0F907C
:103920001F9018950C9428349F92AF92BF92CF921B
:10393000DF92EF92FF920F931F93CF93DF937C015F
:10394000912C292D30E0F7018285938528173907BE
:1039500018F5F9E09F9E6001112483E0220F331FC8
:103960008A95E1F7A12CB12C89010C5F1F4FF7015B
:10397000C085D185CC0DDD1DC8018A0D9B1DD2DF10
:10398000CA0DDB1D8883FFEFAF1ABF0A88E0A816B7
:10399000B10469F79394D5CF81E0DF91CF911F9166
:1039A0000F91FF90EF90DF90CF90BF90AF909F90DE
:1039B00008954F925F926F927F928F929F92AF92F3
:1039C000BF92CF92DF92EF92FF920F931F93CF930C
:1039D000DF936C0180E090E0A5DF893431F481E071
:1039E00090E0A0DF8F3609F488C010E0C4E0D0E09A
:1039F00065E0CE0168DD62E0CE01019664DD61E044
:103A0000CE01029660DD62E0CE0103965CDD62E0ED
:103A1000CE01049658DD60E0CE01059654DD60E0ED
:103A2000CE01069650DD612FCE0107964CDD28961B
:103A30001F5F1031E9F610E0C4E8D0E065E0CE0188
:103A400042DD62E0CE0101963EDD61E0CE010296EC
:103A50003ADD62E0CE01039636DD62E0CE010496E7
:103A600032DD60E0CE0105962EDD60E0CE010696E7
:103A70002ADD612FCE01079626DD28961F5F1031C3
:103A8000E9F6C4E0D1E0CE014DDF882319F060E013
:103A9000CE0119DD2196C430E2E0DE07A1F7C4E0D3
:103AA000D4E0CE013FDF882319F060E0CE010BDDCA
:103AB0002196C43AF4E0DF07A1F760E082E090E0ED
:103AC00002DD60E183E090E0FEDC69E480E090E00C
:103AD000FADC6FE681E090E0DF91CF911F910F91CA
:103AE000FF90EF90DF90CF90BF90AF909F908F901E
:103AF0007F906F905F904F90E6CC82E090E012DF75
:103B0000182F83E090E00EDF082F68E580E090E05A
:103B1000DADC003E18F061E0610F01C0612F82E045
:103B200090E0D1DC60E2600F83E090E0CCDC512CCF
:103B3000A02EB12CF6012285338536952795E52CEC
:103B4000F12CE216F30670F5470193E0880C991CFE
:103B50009A95E1F7C0E0D0E03401F4E06F0E711CFB
:103B6000D6011696ED91FC911797EC0FFD1F608121
:103B7000C3018C0F9D1FA7DC2196C630D10581F7AC
:103B8000612FC4010A969FDCEA0CFB1CBFEFEB1609
:103B9000F10409F41F5F652D600FC4010B9693DCDF
:103BA0005394C8CFC22F802E912CEC2EF12CD6012D
:103BB0001A968D919C911B97E816F90688F5570186
:103BC00083E0AA0CBB1C8A95E1F7412C512C3501EE
:103BD000B4E06B0E711CD6011696ED91FC9117970F
:103BE000E40DF51D6081C301840D951D6CDCBFEFF4
:103BF0004B1A5B0AE6E04E16510469F7612FC501C6
:103C00000A9661DCE80CF91CFFEFEF16F10409F4E9
:103C10001F5F6C2F600FC5010B9655DCCF5FC5CFC2
:103C200069E480E090E04FDC81E090E07BDE8F365D
:103C300009F04FCFDF91CF911F910F91FF90EF903F
:103C4000DF90CF90BF90AF909F908F907F906F90BC
:103C50005F904F90089580E008950F931F93CF9346
:103C6000DF93EC012A9A229A29982A982B98219A74
:103C7000229A239881E58CBD81E08DBD2A9880EC45
:103C8000A5D82A9A8FE891E00197F1F700C00000CB
:103C90002A9882E09BD888E299D800E010E0F801E9
:103CA000E455FD4F849192D80F5F1F4F03301105EB
:103CB000B1F783E08BD82A9A60E08DE0A8D864E65B
:103CC00080E6A5D860E680E7A2D853985B9A60E0CA
:103CD0008CE09DD88AE28FD8082FEEEAF2E01491AA
:103CE00060E08FE094D8011305C08EE084D8807E18
:103CF000E1F702C080E040C08E010A5B1F4FF8016F
:103D0000D283C183B9DDF80163837483858396838D
:103D1000C25ADF4F8AE088838AE590E00E94FB3236
:103D20009A8389838AE090E00E94FB329C838B8394
:103D300080E098818917F8F499E0899F9001112417
:103D4000E981FA81E20FF31F178216821086108232
:103D50001182128213821482158249815A81FA01DA
:103D6000E20FF31F17821682EB81FC81E80FF11D31
:103D700010828F5FDECF81E0DF91CF911F910F9195
:103D8000089520E043E06BE20C9432120F931F93EE
:103D9000CF93DF93DC01EB017C9140E050E020E029
:103DA00030E0271710F5C9011196ED91FC9112979B
:103DB000E40FF51F2F5F3F4F475F5F4F068117816D
:103DC0000C171D0771F71782168210861082118258
:103DD00012821382148215821396ED91FC9114972E
:103DE000E80FF91F108281E001C080E0DF91CF91E0
:103DF0001F910F910895CF92DF92EF92FF920F9350
:103E00001F93CF93DF93EC014881E0E0F0E020E0E6
:103E100030E0241768F5C9012F5F3F4F8F01075F1E
:103E20001F4FA981BA81AE0FBF1F1696ED90FC906F
:103E30001797DB011696CD90DC901797EC14FD04D4
:103E4000A9F4AB81BC81A80FB91F8C918F3F11F0F1
:103E50008F5F8C9389819A81E80FF91F86E0DB01DF
:103E600001900D928A95E1F781E003C0F801D1CF6E
:103E700080E0DF91CF911F910F91FF90EF90DF9045
:103E8000CF900895FC0180819181A281B381B3FF1D
:103E900009C088279927AA27B77021E00097A105B4
:103EA000B24009F020E0822F0895FC0180819181C9
:103EB000A281B381B3FF09C088279927AA27B770C9
:103EC00021E00097A105B34009F020E0822F08957A
:103ED000FC0180819181A281B381B3FF09C0882751
:103EE0009927AA27B77021E00097A105B54009F0EE
:103EF00020E0822F0895CF93DF93EC01C3DF81117F
:103F000018C0CE01D2DF811114C088819981AA81A5
:103F1000BB81B3FF0AC088279927AA27B7700097EB
:103F2000A105B44011F481E004C0CE01DF91CF912E
:103F3000CFCFDF91CF910895FC0180819181A28143
:103F4000B381B3FF09C08827907FBB2721E081158B
:103F50009048A649B10509F020E0822F0895FC01A0
:103F6000408151816281738173FF16C04427507F65
:103F700077278CE076956795579547958A95D1F781
:103F800081E04039F4E05F076105710539F0483898
:103F900054406105710511F080E008950895FC0119
:103FA00080819181A281B381B3FD09C08827907F70
:103FB000B77021E081159043A047B10509F020E0DA
:103FC000822F08958F929F92AF92BF92CF92DF92ED
:103FD000EF92FF920F931F93CF93DF93FC018581A4
:103FE000863008F465C08B01EF01C080D180E2808B
:103FF000F3804601570188249924AA2428E0B2229C
:10400000F3FE09C0D701C6018827907FBB27009720
:10401000A041B10591F0CE01A2DF811135C0D701D9
:10402000C60181149104A104B104A9F08827907FEE
:10403000BB270097A741B10519F5D701C60188270D
:104040009927AA27B7700097A105B14061F4D7FE60
:104050000AC092E009C08827907FB770811590410F
:10406000A047B10569F490E0E92FF0E03696EC0F37
:10407000FD1F86E0D80101900D928A95E1F718C0E6
:10408000CE018DDF882329F089288A288B2859F3CF
:10409000D4CF89288A288B2859F4CC2480EFD822C1
:1040A000FF24C11420E2D20620E7E206F104D9F28F
:1040B000DF91CF911F910F91FF90EF90DF90CF9004
:1040C000BF90AF909F908F900895FC018081918167
:1040D000A281B381B3FD10C08827907FB7702CE018
:1040E000B695A795979587952A95D1F788279077C4
:1040F00021E08115904408F420E0822F08950F9369
:104100001F93AB0160E070E02CE0440F551F661F69
:10411000771F2A95D1F74427507F7727FC0100812C
:104120001181228133811F7022273F71402B512B37
:10413000622B732B40835183628373831F910F9192
:1041400008958F929F92AF92BF92CF92DF92EF929B
:10415000FF92FC01C080D180E280F380F3FE3CC07E
:104160004601570188249924AA2487E0B8228B2C81
:104170009924AA24BB2481E088169104A104B104E7
:10418000A1F4CC2480EFD822FF242CE0F694E7940D
:10419000D794C7942A95D1F7C601887099270097BC
:1041A00031F185818230D8F417C0CF01A4DE8111AE
:1041B00006C087E088169104A104B10469F4CC24F8
:1041C00080EFD822FF249CE0F694E794D794C7941C
:1041D0009A95D1F7C6010BC080E090E008C0C68078
:1041E000D12CDC2CCC248781C82AC6019F70FF907B
:1041F000EF90DF90CF90BF90AF909F908F900895F9
:104200000F931F93FC0180819181A281B3818C0166
:104210009D0100271127222737700115110521055F
:10422000314051F48581811102C082E08583CB0148
:104230009F709683678318C0AB0160E070E02CE04C
:10424000440F551F661F771F2A95D1F74427507FCB
:1042500077279F70AA27BF71482B592B6A2B7B2B7E
:1042600040835183628373831F910F910895FC01F2
:1042700010A2848182608E7F84831582AB015F707F
:1042800060E070E0796140835183628373830895B5
:104290000F931F93CF93DF93EC018B010E94F216D3
:1042A000882301F1F80166817781CE010496DFDF72
:1042B0008C819D81AE81BF819F70AA27B07FA0674E
:1042C0008C839D83AE83BF8386E08987F801DE01FE
:1042D0001A9601900D928A95E1F7CE010E94CB0EBD
:1042E0008823D9F3DF91CF911F910F910895CF9239
:1042F000DF92EF92FF920F931F93CF93DF931F9262
:10430000CDB7DEB78C017B0149830E94F21649814B
:10431000882309F462C0F701423061F04330A9F00C
:104320004130E1F49081F0E19F9F60011124F70199
:10433000818112C0818190E0982F88276C01CC2464
:10434000FFE0DF22F701828113C09381F0E19F9F9C
:1043500060011124F701848182950AC0848190E074
:10436000982F88276C01CC24FFE0DF22F70185819C
:104370008F70C82AF70166817781C8010496498346
:1043800076DF498150E05195419551094770552795
:10439000542F44275295507F4C295D2960E070E0EE
:1043A0009CE0440F551F661F771F9A95D1F7F801BF
:1043B00084819581A681B7819F70AA27B07F482B01
:1043C000592B6A2B7B2B4483558366837783118615
:1043D000C8010E94CB0E8823D9F30F90DF91CF91B3
:1043E0001F910F91FF90EF90DF90CF900895FC0107
:1043F00086819781892B91F4808181110FC0818101
:1044000081110CC08281811109C08381811106C094
:104410008481811103C081E09581911180E008952C
:10442000EF92FF920F931F93CF93DF93EC017B01E9
:104430008C01025F1F4FC801DADF882339F01E8A22
:104440001E861F86188A198A1A8A1B8A8881998172
:104450009F709D8B8C8BF70197838683F801D70122
:10446000649681918D93EC17FD07D9F7DF91CF9179
:104470001F910F91FF90EF9008958F929F92AF92AE
:10448000BF92CF92DF92EF92FF92CF93FB01A08178
:10449000B181109711F018961C9223813481818587
:1044A0009285A385B48545855685678570894A01BF
:1044B0005B01C9EA8C0ECBE49C1ECAE7AC1EB11CA2
:1044C0006A017B01C9E0CC0CDD1CEE1CFF1CCA9507
:1044D000D1F7FF24C80CD91CEA1CFB1C4C015D0160
:1044E000C3EA8C0ECCE09C1ECBE1AC1EB11CCFE02D
:1044F0007695679557954795CA95D1F75170662778
:104500007727C9E0880F991FAA1FBB1FCA95D1F74B
:10451000842B952BA62BB72BBB27880D991DAA1D85
:10452000BB1DBB274F2D552766277727842B952B3F
:10453000A62BB72BB701A60177276A017B01CCE038
:10454000F694E794D794C794CA95D1F7C426D52694
:104550007601E826F9264C015D01CCE0B694A794DB
:1045600097948794CA95D1F78E249F24CFE09C22FC
:104570008114910409F49BCF8216930609F497CF16
:1045800081879287A387B487458756876787708B13
:10459000948283828FE08283CF91FF90EF90DF90AF
:1045A000CF90BF90AF909F908F900895DC01FB015A
:1045B0009C91808198131DC011969C9111978181C7
:1045C000981317C012969C9112978281981311C06C
:1045D00013969C911397838198130BC014969C910A
:1045E00014978481981305C081E015962C919581CC
:1045F000291380E00895DC01FB0116964D915C9132
:1046000017974115510551F0268137812115310544
:1046100029F081E04217530711F522C09C91808157
:1046200098131DC011969C9111978181981317C002
:1046300012969C9112978281981311C013969C91A7
:104640001397838198130BC014969C9114978481BF
:10465000981305C081E015962C919581291380E06F
:1046600008959F92AF92BF92CF92DF92EF92FF9206
:104670000F931F93CF93DF93FB0126813781232B69
:10468000B1F18B01EC019880A12CB12CE12CF12C23
:10469000D12CCC24CA9489819A81E914B0F4B80150
:1046A0008A0D9B1DA8DF811122C0EB81FC81EE0DDC
:1046B000FF1D80818C1510F4DE2CC82EFFEFEF1A41
:1046C000FF0A29E0A20EB11CE6CFDC01E9E0DE9E84
:1046D000A00DB11D112489E0F80101900D928A9579
:1046E000E1F7EB81FC81ED0DF11D81E08083DF912D
:1046F000CF911F910F91FF90EF90DF90CF90BF90DF
:10470000AF909F9008951F93CF93DF93EC0160E0EB
:104710008A8100D882E00E94121281E30E94121264
:104720001DE080E00E9412121150D9F761E08A81E9
:104730000E948A1B60E08A810E948A1B82E00E949C
:10474000121281E40E9412121DE080E00E941212F7
:104750001150D9F761E08A810E948A1B60E08A814A
:104760000E948A1B82E00E94121281E50E941212AE
:104770001DE080E00E9412121150D9F761E08A8199
:10478000DF91CF911F910C948A1B1F93CF93DF93DE
:10479000EC0160E08A810E948A1B82E00E94121272
:1047A00081E60E9412121DE080E00E941212115058
:1047B000D9F761E08A810E948A1B60E08A810E94A9
:1047C0008A1B82E00E94121281E70E9412121DE0F1
:1047D00080E00E9412121150D9F761E08A81DF91C6
:1047E000CF911F910C948A1BDC011296ED91FC91E4
:1047F00013973097D1F0E617F70741F42281338100
:1048000013963C932E9312970895FC018281938115
:10481000009759F086179707C1F7DB0112968D9123
:104820009C9113979383828308950895FC012281BC
:104830003381FB0133832283FC01738362830895F8
:10484000CF93DF93EC0180913206811109C08A81F8
:104850009B81909331068093300681E080933206ED
:104860008091300690913106DC01ED91FC91019030
:10487000F081E02D1995E0913006F09131068281AA
:1048800093819093310680933006892B31F48A818D
:104890009B819093310680933006DF91CF910895EC
:1048A00081E0089580E0089580E0089580E0089513
:1048B00080E0089580E0089580E0089580E0089504
:1048C0001F93CF93DF93EC0110929D0310929E03F0
:1048D00010929F031092A00381E090E0A0E0B0E06E
:1048E0008093810390938203A0938303B093840306
:1048F000611102C010E02CC020E030E080E090E0C8
:10490000EE89FF89A085B185A20FB31F18964C913F
:1049100018974F7E18964C9346855785782F692FA8
:104920004817590710F4742F652F76876787EE892B
:10493000FF890084F185E02DE20FF31F4085477F5A
:1049400040870196275F3F4F80329105C9F6D2CF4D
:1049500060E0812F0E948A1B1F5F1830C9F78FEF1C
:104960008A878B87EE89FF89108A1886DF91CF911D
:104970001F910895CF92DF92EF92FF920F931F93B2
:10498000CF93DF93EC01EE81FF81309709F43FC3B1
:104990008085882309F43BC3898581110EC081E09D
:1049A000898781E090E0A0E0B0E08093810390935C
:1049B0008203A0938303B093840381E993E00E9470
:1049C0001D1785E793E00E941D172091AC033091DD
:1049D000900398E0211102C080E001C0832F915024
:1049E000C9F78F878823D9F02C87809190038D8712
:1049F0008091A1039091A203A091A303B091A4037D
:104A000081342FE19207A105B10514F083E006C0BF
:104A1000893B9B40A105B10514F082E08F878F850B
:104A20009E859817B9F08E878A8B10929D031092FD
:104A30009E0310929F031092A00381E090E0A0E0FB
:104A4000B0E08093810390938203A0938303B0939B
:104A5000840301C01A8A8091AC039C85981799F051
:104A60004091A1035091A2036091A3037091A4030C
:104A70004C345105610571053CF08C87882321F089
:104A800081E0888B01C0188A809190039D859817DA
:104A9000B9F040918503509186036091870370912E
:104AA00088034C345105610571052CF08D878823EE
:104AB00011F081E0898BE12CF12C01E010E00CC0B9
:104AC000198AF9CF209529232C8BFFEFEF1AFF0AC3
:104AD00028E0E216F10459F1E88DF98DEE0DFF1D85
:104AE00080810E94CA1ABC019C8998010E2C02C0C8
:104AF000220F331F0A94E2F7492F50E04223532339
:104B00000E2C02C0559547950A94E2F7FB01FF274A
:104B10004E175F0739F06130A9F6922B9C8B8B8979
:104B2000282B03C020958B8928232B8BCECF8885FB
:104B3000883009F47EC0803809F43AC1811167C217
:104B40008A898330A9F48E899F890E94D91C64E6E2
:104B500070E080E090E00E94041CE0E0F0E0DF9173
:104B6000CF911F910F91FF90EF90DF90CF9019940C
:104B7000823079F48AEA9AEADC0180938103909387
:104B80008203A0938303B093840385E595E5DC015C
:104B900006C1813099F48C819D81DC01ED91FC91FD
:104BA0006E817F810088F189E02DDF91CF911F9187
:104BB0000F91FF90EF90DF90CF9019948889882310
:104BC000D1F088E08887EE89FF8981E0808B80EFD3
:104BD00090EFDC0180939D0390939E03A0939F032D
:104BE000B093A003C0E060E08C2F0E948A1BCF5FCF
:104BF000C830C9F70CC28989882309F408C280E843
:104C00008887EE89FF8981E0808B80EF90EFDC015F
:104C10008093810390938203A0938303B0938403D2
:104C2000C0E060E08C2F0E948A1BCF5FC830C9F7BC
:104C3000EEC18A8981111CC088898823B1F1109244
:104C400081031092820310928303109284038A8559
:104C5000082E000C990B029661E270E00E94C832A7
:104C600081508A878F3F79F460E087E00E948A1B39
:104C700061E0CE01DF91CF911F910F91FF90EF90F6
:104C8000DF90CF901DCE082F082E000C110B982F0F
:104C9000917080310CF0C1C015950795992309F4E6
:104CA000EFC08AE090E0DC01EEC08989882391F1B1
:104CB0008B8587FD0DC0EE89FF890084F185E02D8D
:104CC000B9E08B02E00DF11D11248085886080879A
:104CD0008A8580313CF0EE89FF89082E000C990B03
:104CE000409708C087FD14C0EE89FF89082E000C8C
:104CF000990B409649E0489F9001499F300D11243F
:104D00000084F185E02DE20FF31F808588608087A5
:104D100060E0AFCF4B89442309F479C120E030E053
:104D200050E0822FBA01022E02C0759567950A9451
:104D3000E2F760FD06C02F5F3F4F2830310589F74D
:104D400088E02B85482F50E02F3F41F0022E000CC9
:104D5000330B359527954217530761F08AE090E0B1
:104D6000DC018093810390938203A0938303B0932B
:104D700084031CC19D89913009F42BC1923009F044
:104D800046C1109281031092820310928303109205
:104D900084038FEF8B871D8A80EF90EFDC01809377
:104DA0009D0390939E03A0939F03B093A0032FC1F4
:104DB0008A8981115DCF8889882309F481C040EFF9
:104DC000C42EDC2C7601C0928103D0928203E09243
:104DD0008303F09284038A85082E000C990B0296B7
:104DE00061E270E00E94C83281508A878F3F69F487
:104DF00060E087E00E948A1BC0929D03D0929E03D0
:104E0000E0929F03F092A00302C1082F082E000C2D
:104E1000110B982F917080315CF14AE050E06AEA02
:104E20007AE04093810350938203609383037093ED
:104E300084030051110915950795911115C08FEF45
:104E40009FEFDC0180939D0390939E03A0939F03AB
:104E5000B093A00361E0802F0E948A1B8A85803175
:104E6000F9F460E087E022C080E090EADC01EACF5C
:104E700015950795992321F080E090EADC0103C0A5
:104E80008FEF9FEFDC0180939D0390939E03A0938F
:104E90009F03B093A00361E0802F0E948A1B8A8544
:104EA00082300CF4B4C060E08FEF800FDF91CF91BF
:104EB0001F910F91FF90EF90DF90CF900C948A1B81
:104EC0008989882309F44EC08B8587FD1DC0AE8972
:104ED000BF891896ED91FC91199729E08202E00DA7
:104EE000F11D11249085906190871E962D913C9123
:104EF0001F97082E000C990B2817390708F4C901D1
:104F00001F969C938E931E978A8580313CF0AE89C4
:104F1000BF89082E000C990B409708C087FDF8CE7A
:104F2000AE89BF89082E000C990B409649E0489F36
:104F30009001499F300D11241896ED91FC9119971D
:104F4000E20FF31F2085206120871E962D913C9152
:104F50001F972817390708F4C9011F969C938E9351
:104F60001E97D6CE4B89442309F451C020E030E08F
:104F700050E0822FBA01022E02C0759567950A94FF
:104F8000E2F760FD06C02F5F3F4F2830310589F7FB
:104F900088E02B85482F50E02F3F41F0022E000C77
:104FA000330B359527954217530781F0440F551F52
:104FB0004B878FEF9FEFDC0180939D0390939E03BF
:104FC000A0939F03B093A00381E012C09D8991300C
:104FD00089F4880F8F5F8B878AE090E0DC018093F3
:104FE0009D0390939E03A0939F03B093A00382E040
:104FF0008D8B0DC0923059F48FEF8B871D8A1092E4
:105000009D0310929E0310929F031092A003DF91C4
:10501000CF911F910F91FF90EF90DF90CF90089567
:1050200080E008951F93CF93DF93DC0116966D9176
:105030007C9117976115710509F480C0FB012085EB
:10504000222309F47BC0EC01EA85FB8539E08E85DB
:105050009F858E179F0708F071C019E0389FA00147
:10506000399F500D1124A885B9854A0F5B1FDA01BD
:1050700018962C91A22FA174A13449F48C819D81A2
:10508000DC01ED91FC9100A0F1A1E02D0CC0A22F5C
:10509000A172A132D1F48C819D81DC01ED91FC9152
:1050A000048CF58DE02D1995882309F447C02E85D1
:1050B0003F85129FC001139F900D1124E885F9854B
:1050C000E80FF91F80858E7F33C021FF19C08C81C6
:1050D0009D81DC01ED91FC910288F389E02D199509
:1050E000882361F12E853F85129FC001139F900D8B
:1050F0001124E885F985E80FF91F80858D7F18C098
:1051000024FF18C08C819D81DC01ED91FC91068CFF
:10511000F78DE02D19952E853F85129FC001139FB5
:10512000900D1124E885F985E80FF91F80858F7EA1
:10513000808704C001969F878E8789CFDF91CF91AA
:105140001F91089580E0089580E0089580E008951B
:1051500081E00895CF93DF93DC01241735070CF02D
:1051600047C08C9199E0929FF001939FF00D11241C
:105170003796E60FF71FEF0127979881891332C002
:1051800011966C9111972196988169132BC01296F4
:105190006C91129721969881691324C013966C9193
:1051A00013972196988169131DC014966C911497DA
:1051B00021969881691316C015966C9115972196C2
:1051C000988169130FC016966C9116972196988155
:1051D000691308C017966C9117979081691302C0E4
:1051E000C90108C02F5F3F4F39962417350719F6BC
:1051F0008FEF9FEFDF91CF910895CF93DF93EC0175
:105200008885811108C0CB0168897989F4D9882300
:1052100011F081E08887DF91CF9108954F925F92DE
:105220006F927F928F929F92AF92BF92CF92DF92B6
:10523000EF92FF920F931F93CF93DF93CDB7DEB71B
:1052400029970FB6F894DEBF0FBECDBF8C017B014E
:10525000DB018D909D90AD90BC90240135014424DC
:1052600055246624B8E07B22B3FE7BC0D501C4017F
:105270008827907FBB275CE0B695A7959795879583
:105280005A95D1F7843BE5E09E07A105B10509F4E5
:1052900074C08431E9E09E07A105B10509F4B2C0EC
:1052A000843F28E09207A105B10509F4F5C08037D5
:1052B0009940A105B10509F054C0C7010E949C1F87
:1052C000882391F1CE0101960E94C517C7010E9463
:1052D000A12098878F83CE01019689D881110CC0B7
:1052E000BE016F5F7F4FD80116968D919C911797E5
:1052F00082D9882309F43FC020E030E080E090E0CC
:10530000F801428553858417950730F5D801189622
:10531000ED91FC911997E20FF31F408541604087A2
:105320000196275F3F4FECCF20E030E080E090E037
:10533000F801428553858417950770F4D8011896B3
:10534000ED91FC911997E20FF31F40854160408772
:105350000196275F3F4FECCF17861686FF24F39404
:1053600050C1C7010E949C1F8111A7CF4528462824
:10537000472809F0DBC0F12C44C1CE0101960E9400
:10538000BA1788E0F7013696DE01119601900D926A
:105390008A95E1F720E030E0F12C49E0E42ED801D5
:1053A0001896AD90BC9019971A964D915C911B97E9
:1053B000B501CE010196CEDE6C01019609F421C142
:1053C000EC9CC001ED9C900D1124F501E80FF91F34
:1053D000808585FF0DC0D801ED91FC910680F78195
:1053E000E02DB601C8011995882311F0FF24F3942C
:1053F00096012F5F3F4FF801828593852817390763
:1054000070F2FFC0CE0101960E94BA1788E0F70142
:105410003696DE01119601900D928A95E1F720E013
:1054200030E0F12C99E0E92EF801C084D184428566
:105430005385B601CE0101968DDE8F3FFFEF9F07AA
:1054400009F4DFC0E89E9001E99E300D1124F601B9
:10545000E20FF31F208526FF13C021602087D801AB
:105460001E962D913C911F97582F492F28173907C9
:1054700010F4522F432FF80156874787FF24F394E7
:105480009C012F5F3F4FD8011A968D919C911B97DD
:105490002817390748F2B5C0CE0101960E94BA1705
:1054A00088E0F7013696DE01119601900D928A95FB
:1054B000E1F720E030E0F12C89E0E82EF801C0842B
:1054C000D18442855385B601CE01019643DE8F3FDC
:1054D000FFEF9F0709F495C0E89E9001E99E300D0B
:1054E0001124F601E20FF31F208525FF13C0216070
:1054F0002087D8011E962D913C911F97582F492F38
:105500002817390710F4522F432FF8015687478781
:10551000FF24F3949C012F5F3F4FD8011A968D9181
:105520009C911B972817390748F26BC08824F0EF2D
:105530009F22BB24811420E4920629E5A206B1042F
:1055400009F019CFCE0101960E94BA1788E0F70141
:105550003696DE01119601900D928A95E1F720E0D2
:1055600030E080E090E040E068E0D8011A96ED91EC
:10557000FC911B978E179F07D0F5F801A085B18588
:10558000A20FB31F18965C91189753FF2CC0FE0111
:105590003196462F01900D924A95E1F7D801189661
:1055A000ED91FC911997E20FF31F40854160408710
:1055B0001896ED91FC911997E20FF31F4085477FF4
:1055C00040871E964D915C911F97E82F792F4817C1
:1055D000590710F4E42F752FD8011E96EC931E97EF
:1055E0001F967C9341E00196275F3F4FBECFF42E7C
:1055F000442339F0ED91FC910084F185E02DC80140
:1056000019958F2D29960FB6F894DEBF0FBECDBF2A
:10561000DF91CF911F910F91FF90EF90DF90CF908E
:10562000BF90AF909F908F907F906F905F904F90C2
:105630000895CF92DF92EF92FF920F931F93CF9333
:10564000DF93DC011696ED91FC911797309709F4E2
:10565000A4C02085222309F4A0C0EC018D8D9E8D6D
:105660008F3FBFEF9B0749F18E010C5E1F4F4096A5
:1056700099F48C819D81DC01ED91FC916E817F819B
:105680000688F789E02DA8011995882391F38FEFFB
:105690009FEF9E8F8D8F81C08C819D81DC01ED916C
:1056A000FC912D8D3E8D6E817F81008CF18DE02DE2
:1056B000A8011995882381F3EACF8E85882359F1B3
:1056C0008C819D81DC01ED91FC916A897B89048844
:1056D000F589E02D4F851995182F81113BC00E9447
:1056E0003C1CCA84DB84EC84FD84DC01CB018C1976
:1056F0009D09AE09BF0989389341A105B10550F153
:1057000081E089871E86E881F9810084F185E02D9A
:1057100041E050E137C0898581113FC00E943C1CA7
:105720000A851B852C853D85DC01CB01801B910BF7
:10573000A20BB30B89389341A105B10570F181E04B
:1057400089871E86E881F9810084F185E02D42E099
:1057500050E118C09F85412F50E0490F511DEA8943
:10576000FB89228930E04217530749F41E861F86C1
:105770000E943C1C6A877B878C879D870EC0910F97
:105780009F870BC060E0CE01DF91CF911F910F91F9
:10579000FF90EF90DF90CF901994DF91CF911F9100
:1057A0000F91FF90EF90DF90CF90089508956F9242
:1057B0007F928F929F92AF92BF92CF92DF92EF92A1
:1057C000FF920F931F93CF93DF93CDB7DEB7C556EC
:1057D000D1090FB6F894DEBF0FBECDBFDC0116961F
:1057E000ED91FC911797309709F44CC22085222344
:1057F00009F448C25096ED91FC915197F388B0E2BC
:10580000FB123DC28C018489982F907C903431F03A
:10581000903809F466C1911132C2D7C0CE01019609
:105820000E94C517CE010A960E94C517F80120896B
:10583000318989E0F901DE011A9601900D928A956D
:10584000E1F7F901739686E0DE01549601900D921E
:105850008A95E1F78D898F7080658D8BD901599676
:105860008C91599755969C9155975696CC905697F2
:10587000D12CE12CF12C7601DD24CC24F92A589688
:105880009C915897C92A57969C915797D92A549614
:105890009C919370923009F4F5C1A82EB12C9330ED
:1058A00041F0913069F1BDEF8B1751F1EFEF8E139D
:1058B000E9C1A601AC0CBD1CFCEEAF16F4E0BF06BE
:1058C00010F08BEE8C19DE015A9620E030E0682F44
:1058D00070E02617370708F04EC0F901E40FF51FF6
:1058E000EA3EF44010F01C9207C0F901EC0DFD1DDA
:1058F000E854FD4FE491EC932F5F3F4F1196E9CFB1
:10590000AE01465E5F4FA4E0CA16A1E0DA06E104EC
:10591000F10408F046C0D8015F96ED91FC91909794
:10592000B60193E0769567959A95E1F7962F23E077
:10593000660F771F2A95E1F7960124503109261B3F
:10594000370B62857385B4E0AB1AB108AC0CBD1C93
:10595000DB0133E0AA0FBB1F3A95E1F7AA15BB059F
:1059600028F4862F880F880F880F8C19BA01362FDC
:10597000341B381718F08A5F8B8B20C1283011F444
:105980009F5F20E0A085B18539E0939FA00DB11DF8
:105990001124A20FB11D3C91DB013D93BD012F5F8E
:1059A000E6CF8A5F8B8B3A01812C912C8A149B0461
:1059B00008F004C1C4018C0D9D1D4AD7F3018193E9
:1059C0003F01FFEF8F1A9F0AF1CF2289C5884689D0
:1059D0009789308D8370823009F454C1833009F483
:1059E00051C1813021F0818D8D3F09F04BC126508E
:1059F000D12CE12CF12CFC2CEE24DD24CC24E42A47
:105A0000C32AD92AA22EB12C34E0C31631E0D30622
:105A1000E104F10408F04FC07996D8015F964D91EA
:105A20005C919097C60163E0969587956A95E1F73A
:105A3000382F73E0880F991F7A95E1F7B60164500B
:105A40007109DB01A81BB90BCD01DA011A966D9122
:105A50007C911B97B4E0AB1AB108AC0CBD1CDB0108
:105A600013E0AA0FBB1F1A95E1F7AA15BB0528F48E
:105A7000262F220F220F220F2C196E2FDF019A2FB3
:105A8000961B921798F4883011F43F5F80E09D9147
:105A9000FA0100851185F80179E0379FE00DF11DCD
:105AA0001124E80FF11D90838F5FE9CF81E0DA01C7
:105AB00054968C938BC0812C912C8A149B0408F0F3
:105AC00085C0D8015096ED91FC915197E80DF91DD4
:105AD000C4018C0D9D1D618DC3D6BFEF8B1A9B0A2F
